S02400004D4547415F554152545F494E544552525550545F4558414D504C45312E7372656383
S113000033C000004CC000004AC0000048C00000DB
S113001046C0000044C0000042C0000040C00000D0
S11300203EC000003CC000003AC0000038C00000E0
S113003036C0000034C0000032C0000030C00000F0
S11300402EC000002CC0000073C0000029C00000B6
S113005026C0000024C0000022C0000020C0000010
S11300601EC000001CC0000011241FBECFEFD8E04A
S1130070DEBFCDBF11E0A0E0B1E0E8E7F3E002C0ED
S113008005900D92AE30B107D9F721E0AEE0B1E0B2
S113009001C01D92A034B207E1F798D06BC1B0CF74
S11300A01F920F920FB60F9211242F933F934F93E9
S11300B05F938F939F93AF93BF93EF93FF93EBE380
S11300C0F1E0918180819817F9F0918180819813F2
S11300D001C0FFCFEBE3F1E08181A381B481A80FDC
S11300E0B11D9C918181482F50E0228130E0215044
S11300F031094217530711F08F5F01C080E08093EC
S11301003C019093C60005C0E1ECF0E080818F7D56
S11301108083FF91EF91BF91AF919F918F915F91F8
S11301204F913F912F910F900FBE0F901F901895F4
S11301301F920F920FB60F9211242F933F934F9358
S11301405F936F937F938F939F93AF93BF93EF933B
S1130150FF939091C600E6E3F1E041818081682F2E
S113016070E0228130E0215031096217730711F0E9
S11301708F5F01C080E0481301C0FFCFE6E3F1E0E8
S11301808081A381B481A80FB11D9C938081482FE5
S113019050E0228130E0215031094217530711F019
S11301A08F5F01C080E080933601FF91EF91BF9192
S11301B0AF919F918F917F916F915F914F913F91FB
S11301C02F910F900FBE0F901F901895CF93DF9330
S11301D0CDB7DEB769970FB6F894DEBF0FBECDBFBB
S11301E0F8941092C5008CE08093C400E0ECF0E039
S11301F080818260808388E98093C10086E0809357
S1130200C2001D8A1E8A84E18F8B2EE031E0398F73
S1130210288F95E0FE017596DE01169601900D92E9
S11302209A95E1F795E0FE013696DE01119601906C
S11302300D929A95E1F795E0FE013196ABE3B1E0BA
S113024001900D929A95E1F71D8A1E8A8F8B82E2A6
S113025091E0998F888F85E0FE017596DE015096B6
S113026001900D928A95E1F785E0FE017096DE011A
S11302701B9601900D928A95E1F785E0FE013B966D
S1130280A6E3B1E001900D928A95E1F778940F2EE0
S1130290F0E0AF2EF1E0BF2EF02D4DE051E0B501BE
S11302A0EBE3F1E001EC10E090E0DB01DD90BD0157
S11302B0F89421818081281304C0D8018C91806234
S11302C08C93C1808081E82EF12C228130E0215072
S11302D03109E216F30611F08F5F01C0892FC812AD
S11302E001C0FFCF808123813481280F311DD901C2
S11302F0DC928081E82EF12C228130E021503109FA
S1130300E216F30611F08F5F01C0892F8083789481
S11303106417750751F6E6E3F1E063817481828125
S113032090E00197F12C318120813217E1F3318182
S11303302081321301C0FFCF2181DB01A20FB11D47
S11303400C912181C22ED12CC816D90611F02F5F31
S113035001C02F2D2183D5012D915D0110E0022EC6
S1130360000C330B0217130709F0FFCFA417B507CE
S10B0370D1F6FFCFF894FFCF92
S111037848656C6C6F2C20776F726C642100EA
S9030000FC
