S00F00006361706974616E2E7372656335
S113000033C0000066C1000073C1000048C0000096
S113001046C0000044C0000042C0000040C00000D0
S11300203EC000003CC000003AC0000038C00000E0
S113003036C0000034C0000032C0000030C00000F0
S113004059C000002CC00000ECC00000AAC0000091
S113005026C0000024C0000022C0000020C0000010
S11300601EC000001CC0000011241FBECFEFD8E04A
S1130070DEBFCDBF11E0A0E0B1E0E0E3FCE002C0F0
S113008005900D92A030B107D9F721E0A0E0B1E0CE
S113009001C01D92AE35B207E1F76ED3C7C5B0CF2C
S11300A0EEE6F0E080818160808384B58C7F84BD3E
S11300B085B5877F85BD08951092080110920701C8
S11300C0092E000CAA0BBB0B80930A0190930B0121
S11300D0A0930C01B0930D0116BCF89485B585600E
S11300E085BD78940895F89485B58A7F85BD16BC3E
S11300F0789408951F920F920FB60F9211242F93A4
S11301003F934F935F936F937F938F939F93AF939B
S1130110BF93EF93FF93809107019091080101969B
S1130120813321E0920729F090930801809307011D
S113013027C0109208011092070180910A01909142
S11301400B01A0910C01B0910D010197A109B10916
S113015080930A0190930B01A0930C01B0930D01BD
S113016080910A0190910B01A0910C01B0910D01B5
S1130170892B8A2B8B2B21F486E080930401B3DF37
S1130180FF91EF91BF91AF919F918F917F916F916B
S11301905F914F913F912F910F900FBE0F901F9041
S11301A018951F920F920FB60F9211242F933F931D
S11301B04F935F938F939F93AF93BF93EF93FF936B
S11301C0EBE3F1E0918180819817B9F08181A381FB
S11301D0B481A80FB11D3C912181422F50E082814E
S11301E090E001974817590711F02F5F01C020E0F4
S11301F020933C013093C60005C0E1ECF0E080811F
S11302008F7D8083FF91EF91BF91AF919F918F91EB
S11302105F914F913F912F910F900FBE0F901F90C0
S113022018951F920F920FB60F9211242F934F938C
S11302305F938F939F93AF93BF93EF93FF938091BB
S1130240C600E6E3F1E09081A381B481A90FB11D5A
S11302508C932081422F50E0828190E001974817CF
S1130260590711F02F5F01C020E020933601FF9160
S1130270EF91BF91AF919F918F915F914F912F918A
S11302800F900FBE0F901F9018953BB12AB13E7D81
S113029095B184B1837C937C2E7C326D3BB9226C06
S11302A02AB937B128B1936095B9836284B9832F91
S11302B0807C87B9822F807C88B90895E89AE9E622
S11302C0F0E0808183608083E99A80818C60808300
S11302D008951F920F920FB60F9211248F9383E00B
S11302E0809306018F910F900FBE0F901F90189569
S11302F01F920F920FB60F9211248F9382E0809376
S113030004018F910F900FBE0F901F9018958130AC
S1130310910561F01CF4892B39F008958230910520
S113032039F0039739F008955E9A08955F9A089515
S1130330289A0895299A08958130910561F01CF452
S1130340892B39F008958230910539F0039739F0FB
S113035008955E9808955F980895289808952998B7
S1130360089583B1E0E0F1E082FB882780F980837F
S113037083B183FB882780F9818383B1829581705F
S1130380828383B185FB882780F9838308951F9333
S1130390CF93DF9384E480937C00EAE7F0E08081EC
S11303A080648083808186FDFDCF80917800909168
S11303B07900909345018093440185E480937C0007
S11303C0EAE7F0E0808180648083808186FDFDCF50
S11303D08091780090917900909347018093460131
S11303E086E480937C00EAE7F0E080818064808387
S11303F0808186FDFDCF8091780090917900909363
S113040049018093480187E480937C00EAE7F0E0A7
S1130410808180648083808186FDFDCF8091780017
S11304209091790090934B0180934A01E4E4F1E0C8
S11304302CE431E0C2E0D0E063E070E041E050E061
S1130440808191818F3F12E0910718F0518340839E
S113045009C08F3F910509F018F47183608302C0CD
S1130460D183C0833296E217F30751F7DF91CF911E
S11304701F91089583E480937C00EAE7F0E0808193
S113048080648083808186FDFDCF609178007091C7
S1130490790080E090E0B1D220E030E040EA50E41E
S11304A062D320E030EC4FE754E43FD260934C0138
S11304B070934D0180934E0190934F0182E4809399
S11304C07C00EAE7F0E0808180648083808186FD9F
S11304D0FDCF609178007091790080E090E08DD23A
S11304E020E030E040EA50E43ED320E030EC4FE737
S11304F054E41BD2609350017093510180935201D4
S11305009093530181E480937C00EAE7F0E08081DA
S113051080648083808186FDFDCF60917800709136
S1130520790080E090E069D220E030E040EA50E4D5
S11305301AD320E030EC4FE754E4F7D16093540130
S113054070935501809356019093570180E48093F2
S11305507C00EAE7F0E0808180648083808186FD0E
S1130560FDCF609178007091790080E090E045D2F1
S113057020E030E040EA50E4F6D220E030EC4FE7EF
S113058054E4D3D1609358017093590180935A0174
S113059090935B0108952F923F924F925F926F92D6
S11305A07F928F929F92AF92BF92CF92DF92EF92FF
S11305B0FF920F931F93CF93DF9304E411E0C0E401
S11305C0D1E00F2EFCE4EF2EF1E0FF2EF02D0F2EE4
S11305D0FCE4CF2EF1E0DF2EF02D772473940F2E60
S11305E0F8E75F2EF02D0F2EFCE32F2EF02D0F2EAB
S11305F0F4E23F2EF02D0F2EF8E14F2EF02D6894EB
S1130600662461F8F801819191918F0181309105FF
S113061019F0029719F090C078828EC0F70180809B
S11306209180A280B38023E333E343EB5EE3C5010F
S1130630B40177D188230CF4688223E333E343EBDA
S11306405EE3C501B4018BD218165CF423EC35EFDC
S113065048E85FE3C501B40164D1882314F4F4E0ED
S1130660F88323EC35EF48E85FE3C501B40177D2A2
S113067018165CF42AE037ED43EE5FE3C501B401DC
S113068050D1882314F486E088832AE037ED43EEC2
S11306905FE3C501B40163D218165CF420E030E0D6
S11306A040E250E4C501B4013CD1882314F4ECE0E9
S11306B0E88320E030E040E250E4C501B4014FD2C9
S11306C0181654F424EA30E74DE450E4C501B401AB
S11306D028D188230CF4488224EA30E74DE450E41E
S11306E0C501B4013CD2181654F428E431EE4AE7AB
S11306F050E4C501B40115D188230CF4388228E4F0
S113070031EE4AE750E4C501B40129D2181654F475
S113071026EF38E244E950E4C501B40102D188234C
S11307200CF4288226EF38E244E950E4C501B40110
S113073016D218160CF458822196F4E0EF0EF11C30
S11307400C151D0509F05ECFDF91CF911F910F911C
S1130750FF90EF90DF90CF90BF90AF909F908F90DD
S11307607F906F905F904F903F902F9008955E9A86
S11307705F9A289A299A089588DDA0DD91DC87E89C
S113078080937A00789485E598E5A4E1B0E0019738
S1130790A109B109E1F71092040181E080930601F7
S11307A005E00F2EF9E0EF2EF02D0F2EFAEA9F2E22
S11307B0F02D0F2EF1E1AF2EF02D6894BB24B2F88A
S11307C0C12CC1E00F2EF6E0DF2EF02D6894FF243B
S11307D0F3F810E0D0E080910601853009F48FC071
S11307E030F4813051F0833009F48DC0F4CF883077
S11307F001F1893009F458C0EECF809104018230B0
S113080051F7109204015998812F9D2F0196853537
S113081020ED9207D9F7489B09C0A3DDB8DD2ADE95
S1130820BADE10920901F0920601D5CF00930601B9
S1130830D2CF90910901292F30E0F901E050FF4F08
S11308408081882339F1C90177DD8091090190E025
S1130850FC01EE0FFF1FEC5BFE4F20813181233042
S1130860310579F45C98549A892D9A2DAB2DBC2DC1
S11308700197A109B109E1F754985C9AC093050165
S113088006C0FC01E05CFE4F808190E015DCE09244
S11308900601A1CF81E0890F80930901943008F407
S11308A09ACF0093060197CF809104018630A1F47A
S11308B0109204018091090190E029DD80910901E1
S11308C091E0980F90930901843018F4F092060196
S11308D082CF009306017FCFE0910901F0E0EE0F93
S11308E0FF1FEC5BFE4F80819181039709F073CF6A
S11308F04D9971CFD0920401109205016CCF599A91
S1130900C093060168CF33DF599A812F9D2F01963A
S1130910853520ED9207D9F710920401C0930601A2
S11309205ACFA8D008F481E008950CD0DEC0D6D008
S113093040F0CDD030F021F45F3F19F0BFC0511129
S113094008C1C2C0E3D098F39923C9F35523B1F386
S1130950951B550BBB27AA2762177307840738F02A
S11309609F5F5F4F220F331F441FAA1FA9F333D089
S11309700E2E3AF0E0E830D091505040E695001C3D
S1130980CAF729D0FE2F27D0660F771F881FBB1FF9
S1130990261737074807AB07B0E809F0BB0B802DD3
S11309A0BF01FF2793585F4F2AF09E3F510568F01F
S11309B085C0CFC05F3FECF3983EDCF38695779516
S11309C06795B795F7959F5FC9F7880F911D969521
S11309D0879597F90895E1E0660F771F881FBB1F7D
S11309E0621773078407BA0720F0621B730B840B2A
S11309F0BA0BEE1F88F7E0950895E89409C097FBB9
S1130A003EF490958095709561957F4F8F4F9F4FE1
S1130A109923A9F0F92F96E9BB279395F695879525
S1130A2077956795B795F111F8CFFAF4BB0F11F4E8
S1130A3060FF1BC06F5F7F4F8F4F9F4F16C088238F
S1130A4011F096E911C0772321F09EE8872F762FC5
S1130A5005C0662371F096E8862F70E060E02AF006
S1130A609A95660F771F881FDAF7880F96958795F2
S1130A7097F90895990F0008550FAA0BE0E8FEEFC7
S1130A8016161706E807F907C0F012161306E4074E
S1130A90F50798F0621B730B840B950B39F40A2647
S1130AA061F0232B242B252B21F408950A2609F425
S1130AB0A140A6958FEF811D811D089597F99F6729
S1130AC080E870E060E008959FEF80EC08950024D2
S1130AD00A941616170618060906089500240A949F
S1130AE012161306140605060895092E0394000C25
S1130AF011F4882352F0BB0F40F4BF2B11F460FFB4
S1130B0004C06F5F7F4F8F4F9F4F089557FD9058DC
S1130B10440F551F59F05F3F71F04795880F97FBBD
S1130B20991F61F09F3F79F0879508951216130677
S1130B301406551FF2CF4695F1DF08C016161706A6
S1130B401806991FF1CF86957105610508940895DB
S1130B50E894BB2766277727CB0197F908958ADFA6
S1130B6008F48FEF08950BD0C0CFB1DF28F0B6DFC3
S1130B7018F0952309F0A2CFA7CF1124EACFC6DF3E
S1130B80A0F3959FD1F3950F50E0551F629FF0019C
S1130B90729FBB27F00DB11D639FAA27F00DB11DF5
S1130BA0AA1F649F6627B00DA11D661F829F22277E
S1130BB0B00DA11D621F739FB00DA11D621F839F05
S1130BC0A00D611D221F749F3327A00D611D231FDB
S1130BD0849F600D211D822F762F6A2F11249F5729
S1130BE050408AF0E1F088234AF0EE0FFF1FBB1F4C
S1130BF0661F771F881F91505040A9F79E3F5105EB
S1130C0070F05CCFA6CF5F3FECF3983EDCF38695A3
S1130C1077956795B795F795E7959F5FC1F7FE2B95
S1130C20880F911D9695879597F90895F894FFCFAD
S9030000FC
